:10000000FFEF02F0F76A140FF66E000EF7220900F8
:10001000F5501200000000000000005F0000000327
:10002000000300143E143E14242A7F2A124333088E
:10003000666136495522500005030000001C22412C
:10004000000041221C0014083E081408083E08085D
:100050000050300000080808080800606000002018
:10006000100804023E5149453E0004027F004261EF
:1000700051494622414949361814127F10274545F7
:1000800045393E4949493201017109073649494913
:1000900036264949493E00363600000056360000F3
:1000A00008142241001414141414004122140802EC
:1000B000015109063E4159555E7E0909097E7F4975
:1000C0004949363E414141227F4141413E7F4949B4
:1000D00049417F090909013E4141493A7F08080821
:1000E0007F00417F4100304040403F7F0814224163
:1000F0007F404040407F020C027F7F0204087F3E29
:100100004141413E7F090909061E2121215E7F09E7
:1001100009097600F76A240FF66E010EF72209002E
:10012000F5501200264949493201017F01013F4043
:1001300040403F1F2040201F7F2010207F41221C75
:10014000224107087008076151494543007F41007B
:100150000002040810200000417F00040201020494
:100160004040404040000102040020545454787F35
:10017000444444383844444444384444447F385424
:1001800054541804047E0505085454543C7F080454
:10019000047800447D40002040443D007F10284406
:1001A0000000417F40007C047804787C08040478D7
:1001B00038444444387C14141408081414147C0083
:1001C0007C080404485454542004043F44443C40F4
:1001D00040207C1C2040201C3C4030403C442810E7
:1001E00028440C5050503C4464544C440008364160
:1001F0004100007F00004141360800020102040274
:10020000000E936E92968996215203E094908B8013
:1002100002D0929A898A00D000D00000936A22C04E
:100220008AFF00D000D000009294898400D000D0D2
:10023000000092948994929A899A94908B901200DB
:100240000B6A0B50070834E392988998216A400E94
:10025000226ED6DF010E216E400E226ED1DF0B50D2
:10026000B8090D6E216A226ECBDF0B50B8090D6EF6
:10027000010E216E0DC022F0C3DF929889880C6AAE
:100280000C503F0813E30A50FF0DF3CF0DF0216A25
:100290000DC022F0B5DF0A50FF0DF3CF0DF0010EB7
:1002A000216E0DC022F0ACDF0C2AEAD70B2AC9D789
:1002B000120094928B8292948994929A899A949043
:1002C0008B9092988998216AC00E226E99DF010E58
:1002D000216EC00E226E94DF216A400E226E90DFE6
:1002E000010E216E400E226E8BDF216AB80E226E47
:1002F00087DF010E216EB80E226E82DF092C0AD034
:10030000216A3F0E226E7CDF010E216E3F0E226EAF
:1003100077DF09D0216A3E0E226E72DF010E216E58
:100320003E0E226E6DDF0A6A8BDF13EF03F0FF0EC5
:10033000936E92968986205203E094908B8002D02F
:10034000929A898A00D000D000009294898400D0CB
:1003500000D00000936881CF21F092948994929A02
:10036000899A94908B9021C001F012001E901A502F
:100370003F0803E2400E1A5E1E80929889981A9EEA
:100380001A8C000E1EB0010E1F6E216E1AC022F0D4
:1003900037DF000E1EB0010E1F6E1B30006E0032E4
:1003A00000321F0E00160050BF0BB809206E1FC090
:1003B00021F0226E25DF92988988000E1EB0010E72
:1003C0001F6E206EB4DF000E1EB0010E1F6E206E79
:1003D000AEDF01C01DF01C2C0FD01B50070B1F6E91
:1003E000010E006E1F50016E04E0D8900036012E01
:1003F000FCD700501D120FD01B50070B1F6E010EB3
:10040000006E1F50016E04E0D8900036012EFCD71C
:100410000050FF0A1D1692988998000E1EB0010E1A
:100420001F6E216E1AC022F0EBDE92988988000EB2
:100430001EB0010E1F6E216E1DC022F0E1DEDAEF4C
:1004400002F00CC003F00BC0E9FF0CC0EAFFEF5252
:10045000D8B4BFD00CC003F00BC0E9FF0CC0EAFF5A
:10046000EF50520823E30CC003F00BC0E9FF0CC0AF
:10047000EAFF200EEF5C050DF350036A186EEA6A7E
:10048000130EE96E1C6A18C01BF0F2CF19F0F29E31
:10049000050E016EF76A1850B5DD0A000900F5CFA8
:1004A000EEFF012EFBD719BEF28E31D00CC003F047
:1004B0000BC0E9FF0CC0EAFFEF507E0823E30CC03D
:1004C00003F00BC0E9FF0CC0EAFF530EEF5C050D13
:1004D000F350036A186EEA6A130EE96E1C6A18C0BC
:1004E0001BF0F2CF19F0F29E050E016EF76A18505C
:1004F00011DE0A000900F5CFEEFF012EFBD719BE71
:10050000F28E05D0136A146A156A166A176A0CC04F
:1005100003F00BC0E9FF0CC0EAFFEF500A0A03E04A
:10052000070A07E008D00D50070DF350010F0A2607
:100530004BD0096A49D00D50050DF35009247F08AE
:1005400006E2096A0D50070DF350010F0A260F6AE3
:100550000F50040839E3106A1050060831E3036AAB
:100560000F50130FE96E000E0320EA6EEFCF18F064
:1005700018C000F01050016E04E0D8900032012E37
:10058000FCD700A01BD0116A0D50115C17E2126A53
:100590000D50125C11E212500924186E10500D0219
:1005A000F3500A241124196E18C01AF01B6E0EC0E5
:1005B0001CF0DCD6122AECD7112AE6D7102ACCD7A9
:1005C0000F2A0D500926C4D70B2AD8B40C2A092AA1
:1005D00038D72AEF03F0EA6A090EE96EEF500DE012
:1005E000060E016E006A002EFED7012EFBD77B0E91
:1005F000006E002EFED7EF2EF3D72DEF03F0F86A32
:10060000D09EC150C00B0F09C16E070EB46E480ECC
:10061000046E6F0E056E6C0E066E610E076E086A34
:10062000010E096E46D6C150C00B0F09C16EC050F5
:10063000C00B0709C06EC08EC2800A6A01DE0A0EB6
:10064000096E0A6E0C6A040E0B6E020E0D6E010E20
:100650000E6EF7D6C80E096EBED70A6AF1DDEFD767
:02066000030095
:020000040030CA
:0E00000004CC380E0007A1000FC00FE00F4027
:00000001FF
;PIC18F4550
;CRC=B23D  CREATED="05-feb-17 17:42"
